{
  "_format": "hh-sol-artifact-1",
  "contractName": "PRATI_NFT",
  "sourceName": "contracts/PRATI_NFT.sol",
  "abi": [
    {
      "inputs": [
        {
          "internalType": "string",
          "name": "name",
          "type": "string"
        },
        {
          "internalType": "string",
          "name": "symbol",
          "type": "string"
        }
      ],
      "stateMutability": "nonpayable",
      "type": "constructor"
    },
    {
      "anonymous": false,
      "inputs": [
        {
          "indexed": true,
          "internalType": "address",
          "name": "owner",
          "type": "address"
        },
        {
          "indexed": true,
          "internalType": "address",
          "name": "approved",
          "type": "address"
        },
        {
          "indexed": true,
          "internalType": "uint256",
          "name": "tokenId",
          "type": "uint256"
        }
      ],
      "name": "Approval",
      "type": "event"
    },
    {
      "anonymous": false,
      "inputs": [
        {
          "indexed": true,
          "internalType": "address",
          "name": "owner",
          "type": "address"
        },
        {
          "indexed": true,
          "internalType": "address",
          "name": "operator",
          "type": "address"
        },
        {
          "indexed": false,
          "internalType": "bool",
          "name": "approved",
          "type": "bool"
        }
      ],
      "name": "ApprovalForAll",
      "type": "event"
    },
    {
      "anonymous": false,
      "inputs": [
        {
          "indexed": true,
          "internalType": "address",
          "name": "from",
          "type": "address"
        },
        {
          "indexed": true,
          "internalType": "address",
          "name": "to",
          "type": "address"
        },
        {
          "indexed": true,
          "internalType": "uint256",
          "name": "tokenId",
          "type": "uint256"
        }
      ],
      "name": "Transfer",
      "type": "event"
    },
    {
      "inputs": [
        {
          "internalType": "address",
          "name": "to",
          "type": "address"
        },
        {
          "internalType": "uint256",
          "name": "tokenId",
          "type": "uint256"
        }
      ],
      "name": "approve",
      "outputs": [],
      "stateMutability": "nonpayable",
      "type": "function"
    },
    {
      "inputs": [
        {
          "internalType": "address",
          "name": "owner",
          "type": "address"
        }
      ],
      "name": "balanceOf",
      "outputs": [
        {
          "internalType": "uint256",
          "name": "",
          "type": "uint256"
        }
      ],
      "stateMutability": "view",
      "type": "function"
    },
    {
      "inputs": [
        {
          "internalType": "address",
          "name": "recipient",
          "type": "address"
        },
        {
          "internalType": "string[]",
          "name": "tokenURIsArray",
          "type": "string[]"
        }
      ],
      "name": "batchMint",
      "outputs": [
        {
          "internalType": "uint256[]",
          "name": "",
          "type": "uint256[]"
        }
      ],
      "stateMutability": "nonpayable",
      "type": "function"
    },
    {
      "inputs": [
        {
          "internalType": "uint256",
          "name": "tokenId",
          "type": "uint256"
        }
      ],
      "name": "getApproved",
      "outputs": [
        {
          "internalType": "address",
          "name": "",
          "type": "address"
        }
      ],
      "stateMutability": "view",
      "type": "function"
    },
    {
      "inputs": [
        {
          "internalType": "address",
          "name": "owner",
          "type": "address"
        },
        {
          "internalType": "address",
          "name": "operator",
          "type": "address"
        }
      ],
      "name": "isApprovedForAll",
      "outputs": [
        {
          "internalType": "bool",
          "name": "",
          "type": "bool"
        }
      ],
      "stateMutability": "view",
      "type": "function"
    },
    {
      "inputs": [
        {
          "internalType": "address",
          "name": "recipient",
          "type": "address"
        },
        {
          "internalType": "string",
          "name": "_tokenURI",
          "type": "string"
        }
      ],
      "name": "mintNFT",
      "outputs": [
        {
          "internalType": "uint256",
          "name": "",
          "type": "uint256"
        }
      ],
      "stateMutability": "nonpayable",
      "type": "function"
    },
    {
      "inputs": [],
      "name": "name",
      "outputs": [
        {
          "internalType": "string",
          "name": "",
          "type": "string"
        }
      ],
      "stateMutability": "view",
      "type": "function"
    },
    {
      "inputs": [
        {
          "internalType": "uint256",
          "name": "tokenId",
          "type": "uint256"
        }
      ],
      "name": "ownerOf",
      "outputs": [
        {
          "internalType": "address",
          "name": "",
          "type": "address"
        }
      ],
      "stateMutability": "view",
      "type": "function"
    },
    {
      "inputs": [],
      "name": "promptDescription",
      "outputs": [
        {
          "internalType": "string",
          "name": "",
          "type": "string"
        }
      ],
      "stateMutability": "view",
      "type": "function"
    },
    {
      "inputs": [
        {
          "internalType": "address",
          "name": "from",
          "type": "address"
        },
        {
          "internalType": "address",
          "name": "to",
          "type": "address"
        },
        {
          "internalType": "uint256",
          "name": "tokenId",
          "type": "uint256"
        }
      ],
      "name": "safeTransferFrom",
      "outputs": [],
      "stateMutability": "nonpayable",
      "type": "function"
    },
    {
      "inputs": [
        {
          "internalType": "address",
          "name": "from",
          "type": "address"
        },
        {
          "internalType": "address",
          "name": "to",
          "type": "address"
        },
        {
          "internalType": "uint256",
          "name": "tokenId",
          "type": "uint256"
        },
        {
          "internalType": "bytes",
          "name": "data",
          "type": "bytes"
        }
      ],
      "name": "safeTransferFrom",
      "outputs": [],
      "stateMutability": "nonpayable",
      "type": "function"
    },
    {
      "inputs": [
        {
          "internalType": "address",
          "name": "operator",
          "type": "address"
        },
        {
          "internalType": "bool",
          "name": "approved",
          "type": "bool"
        }
      ],
      "name": "setApprovalForAll",
      "outputs": [],
      "stateMutability": "nonpayable",
      "type": "function"
    },
    {
      "inputs": [
        {
          "internalType": "bytes4",
          "name": "interfaceId",
          "type": "bytes4"
        }
      ],
      "name": "supportsInterface",
      "outputs": [
        {
          "internalType": "bool",
          "name": "",
          "type": "bool"
        }
      ],
      "stateMutability": "view",
      "type": "function"
    },
    {
      "inputs": [],
      "name": "symbol",
      "outputs": [
        {
          "internalType": "string",
          "name": "",
          "type": "string"
        }
      ],
      "stateMutability": "view",
      "type": "function"
    },
    {
      "inputs": [
        {
          "internalType": "uint256",
          "name": "tokenId",
          "type": "uint256"
        }
      ],
      "name": "tokenURI",
      "outputs": [
        {
          "internalType": "string",
          "name": "",
          "type": "string"
        }
      ],
      "stateMutability": "view",
      "type": "function"
    },
    {
      "inputs": [
        {
          "internalType": "address",
          "name": "from",
          "type": "address"
        },
        {
          "internalType": "address",
          "name": "to",
          "type": "address"
        },
        {
          "internalType": "uint256",
          "name": "tokenId",
          "type": "uint256"
        }
      ],
      "name": "transferFrom",
      "outputs": [],
      "stateMutability": "nonpayable",
      "type": "function"
    }
  ],
  "bytecode": "0x60806040526040518060600160405280603b8152602001620033a3603b9139600790816200002e91906200034d565b503480156200003c57600080fd5b50604051620033de380380620033de833981810160405281019062000062919062000598565b818181600090816200007591906200034d565b5080600190816200008791906200034d565b50505033600960006101000a81548173ffffffffffffffffffffffffffffffffffffffff021916908373ffffffffffffffffffffffffffffffffffffffff16021790555050506200061d565b600081519050919050565b7f4e487b7100000000000000000000000000000000000000000000000000000000600052604160045260246000fd5b7f4e487b7100000000000000000000000000000000000000000000000000000000600052602260045260246000fd5b600060028204905060018216806200015557607f821691505b6020821081036200016b576200016a6200010d565b5b50919050565b60008190508160005260206000209050919050565b60006020601f8301049050919050565b600082821b905092915050565b600060088302620001d57fffffffffffffffffffffffffffffffffffffffffffffffffffffffffffffffff8262000196565b620001e1868362000196565b95508019841693508086168417925050509392505050565b6000819050919050565b6000819050919050565b60006200022e620002286200022284620001f9565b62000203565b620001f9565b9050919050565b6000819050919050565b6200024a836200020d565b62000262620002598262000235565b848454620001a3565b825550505050565b600090565b620002796200026a565b620002868184846200023f565b505050565b5b81811015620002ae57620002a26000826200026f565b6001810190506200028c565b5050565b601f821115620002fd57620002c78162000171565b620002d28462000186565b81016020851015620002e2578190505b620002fa620002f18562000186565b8301826200028b565b50505b505050565b600082821c905092915050565b6000620003226000198460080262000302565b1980831691505092915050565b60006200033d83836200030f565b9150826002028217905092915050565b6200035882620000d3565b67ffffffffffffffff811115620003745762000373620000de565b5b6200038082546200013c565b6200038d828285620002b2565b600060209050601f831160018114620003c55760008415620003b0578287015190505b620003bc85826200032f565b8655506200042c565b601f198416620003d58662000171565b60005b82811015620003ff57848901518255600182019150602085019450602081019050620003d8565b868310156200041f57848901516200041b601f8916826200030f565b8355505b6001600288020188555050505b505050505050565b6000604051905090565b600080fd5b600080fd5b600080fd5b600080fd5b6000601f19601f8301169050919050565b6200046e8262000452565b810181811067ffffffffffffffff8211171562000490576200048f620000de565b5b80604052505050565b6000620004a562000434565b9050620004b3828262000463565b919050565b600067ffffffffffffffff821115620004d657620004d5620000de565b5b620004e18262000452565b9050602081019050919050565b60005b838110156200050e578082015181840152602081019050620004f1565b60008484015250505050565b6000620005316200052b84620004b8565b62000499565b90508281526020810184848401111562000550576200054f6200044d565b5b6200055d848285620004ee565b509392505050565b600082601f8301126200057d576200057c62000448565b5b81516200058f8482602086016200051a565b91505092915050565b60008060408385031215620005b257620005b16200043e565b5b600083015167ffffffffffffffff811115620005d357620005d262000443565b5b620005e18582860162000565565b925050602083015167ffffffffffffffff81111562000605576200060462000443565b5b620006138582860162000565565b9150509250929050565b612d76806200062d6000396000f3fe608060405234801561001057600080fd5b50600436106101005760003560e01c80639536373111610097578063c87b56dd11610066578063c87b56dd146102ab578063e985e9c5146102db578063eacabe141461030b578063f2f18baa1461033b57610100565b8063953637311461023757806395d89b4114610255578063a22cb46514610273578063b88d4fde1461028f57610100565b806323b872dd116100d357806323b872dd1461019f57806342842e0e146101bb5780636352211e146101d757806370a082311461020757610100565b806301ffc9a71461010557806306fdde0314610135578063081812fc14610153578063095ea7b314610183575b600080fd5b61011f600480360381019061011a919061192e565b61036b565b60405161012c9190611976565b60405180910390f35b61013d61044d565b60405161014a9190611a21565b60405180910390f35b61016d60048036038101906101689190611a79565b6104df565b60405161017a9190611ae7565b60405180910390f35b61019d60048036038101906101989190611b2e565b610525565b005b6101b960048036038101906101b49190611b6e565b61063c565b005b6101d560048036038101906101d09190611b6e565b61069c565b005b6101f160048036038101906101ec9190611a79565b6106bc565b6040516101fe9190611ae7565b60405180910390f35b610221600480360381019061021c9190611bc1565b610742565b60405161022e9190611bfd565b60405180910390f35b61023f6107f9565b60405161024c9190611a21565b60405180910390f35b61025d61088b565b60405161026a9190611a21565b60405180910390f35b61028d60048036038101906102889190611c44565b61091d565b005b6102a960048036038101906102a49190611db9565b610933565b005b6102c560048036038101906102c09190611a79565b610995565b6040516102d29190611a21565b60405180910390f35b6102f560048036038101906102f09190611e3c565b610a82565b6040516103029190611976565b60405180910390f35b61032560048036038101906103209190611f1d565b610b16565b6040516103329190611bfd565b60405180910390f35b6103556004803603810190610350919061205f565b610bde565b6040516103629190612179565b60405180910390f35b60007f80ac58cd000000000000000000000000000000000000000000000000000000007bffffffffffffffffffffffffffffffffffffffffffffffffffffffff1916827bffffffffffffffffffffffffffffffffffffffffffffffffffffffff1916148061043657507f5b5e139f000000000000000000000000000000000000000000000000000000007bffffffffffffffffffffffffffffffffffffffffffffffffffffffff1916827bffffffffffffffffffffffffffffffffffffffffffffffffffffffff1916145b80610446575061044582610c9b565b5b9050919050565b60606000805461045c906121ca565b80601f0160208091040260200160405190810160405280929190818152602001828054610488906121ca565b80156104d55780601f106104aa576101008083540402835291602001916104d5565b820191906000526020600020905b8154815290600101906020018083116104b857829003601f168201915b5050505050905090565b60006104ea82610d05565b6004600083815260200190815260200160002060009054906101000a900473ffffffffffffffffffffffffffffffffffffffff169050919050565b6000610530826106bc565b90508073ffffffffffffffffffffffffffffffffffffffff168373ffffffffffffffffffffffffffffffffffffffff16036105a0576040517f08c379a00000000000000000000000000000000000000000000000000000000081526004016105979061226d565b60405180910390fd5b8073ffffffffffffffffffffffffffffffffffffffff166105bf610d50565b73ffffffffffffffffffffffffffffffffffffffff1614806105ee57506105ed816105e8610d50565b610a82565b5b61062d576040517f08c379a0000000000000000000000000000000000000000000000000000000008152600401610624906122ff565b60405180910390fd5b6106378383610d58565b505050565b61064d610647610d50565b82610e11565b61068c576040517f08c379a000000000000000000000000000000000000000000000000000000000815260040161068390612391565b60405180910390fd5b610697838383610ea6565b505050565b6106b783838360405180602001604052806000815250610933565b505050565b6000806106c88361119f565b9050600073ffffffffffffffffffffffffffffffffffffffff168173ffffffffffffffffffffffffffffffffffffffff1603610739576040517f08c379a0000000000000000000000000000000000000000000000000000000008152600401610730906123fd565b60405180910390fd5b80915050919050565b60008073ffffffffffffffffffffffffffffffffffffffff168273ffffffffffffffffffffffffffffffffffffffff16036107b2576040517f08c379a00000000000000000000000000000000000000000000000000000000081526004016107a99061248f565b60405180910390fd5b600360008373ffffffffffffffffffffffffffffffffffffffff1673ffffffffffffffffffffffffffffffffffffffff168152602001908152602001600020549050919050565b606060078054610808906121ca565b80601f0160208091040260200160405190810160405280929190818152602001828054610834906121ca565b80156108815780601f1061085657610100808354040283529160200191610881565b820191906000526020600020905b81548152906001019060200180831161086457829003601f168201915b5050505050905090565b60606001805461089a906121ca565b80601f01602080910402602001604051908101604052809291908181526020018280546108c6906121ca565b80156109135780601f106108e857610100808354040283529160200191610913565b820191906000526020600020905b8154815290600101906020018083116108f657829003601f168201915b5050505050905090565b61092f610928610d50565b83836111dc565b5050565b61094461093e610d50565b83610e11565b610983576040517f08c379a000000000000000000000000000000000000000000000000000000000815260040161097a90612391565b60405180910390fd5b61098f84848484611348565b50505050565b60606109a0826113a4565b6109df576040517f08c379a00000000000000000000000000000000000000000000000000000000081526004016109d690612521565b60405180910390fd5b6008600083815260200190815260200160002080546109fd906121ca565b80601f0160208091040260200160405190810160405280929190818152602001828054610a29906121ca565b8015610a765780601f10610a4b57610100808354040283529160200191610a76565b820191906000526020600020905b815481529060010190602001808311610a5957829003601f168201915b50505050509050919050565b6000600560008473ffffffffffffffffffffffffffffffffffffffff1673ffffffffffffffffffffffffffffffffffffffff16815260200190815260200160002060008373ffffffffffffffffffffffffffffffffffffffff1673ffffffffffffffffffffffffffffffffffffffff16815260200190815260200160002060009054906101000a900460ff16905092915050565b6000600960009054906101000a900473ffffffffffffffffffffffffffffffffffffffff1673ffffffffffffffffffffffffffffffffffffffff163373ffffffffffffffffffffffffffffffffffffffff1614610ba8576040517f08c379a0000000000000000000000000000000000000000000000000000000008152600401610b9f9061258d565b60405180910390fd5b6000610bb460066113e5565b9050610bc084826113f3565b610bca8184611411565b610bd4600661147e565b8091505092915050565b60606000825167ffffffffffffffff811115610bfd57610bfc611c8e565b5b604051908082528060200260200182016040528015610c2b5781602001602082028036833780820191505090505b50905060005b8351811015610c9057610c5e85858381518110610c5157610c506125ad565b5b6020026020010151610b16565b828281518110610c7157610c706125ad565b5b6020026020010181815250508080610c889061260b565b915050610c31565b508091505092915050565b60007f01ffc9a7000000000000000000000000000000000000000000000000000000007bffffffffffffffffffffffffffffffffffffffffffffffffffffffff1916827bffffffffffffffffffffffffffffffffffffffffffffffffffffffff1916149050919050565b610d0e816113a4565b610d4d576040517f08c379a0000000000000000000000000000000000000000000000000000000008152600401610d44906123fd565b60405180910390fd5b50565b600033905090565b816004600083815260200190815260200160002060006101000a81548173ffffffffffffffffffffffffffffffffffffffff021916908373ffffffffffffffffffffffffffffffffffffffff160217905550808273ffffffffffffffffffffffffffffffffffffffff16610dcb836106bc565b73ffffffffffffffffffffffffffffffffffffffff167f8c5be1e5ebec7d5bd14f71427d1e84f3dd0314c0f7b2291e5b200ac8c7c3b92560405160405180910390a45050565b600080610e1d836106bc565b90508073ffffffffffffffffffffffffffffffffffffffff168473ffffffffffffffffffffffffffffffffffffffff161480610e5f5750610e5e8185610a82565b5b80610e9d57508373ffffffffffffffffffffffffffffffffffffffff16610e85846104df565b73ffffffffffffffffffffffffffffffffffffffff16145b91505092915050565b8273ffffffffffffffffffffffffffffffffffffffff16610ec6826106bc565b73ffffffffffffffffffffffffffffffffffffffff1614610f1c576040517f08c379a0000000000000000000000000000000000000000000000000000000008152600401610f13906126c5565b60405180910390fd5b600073ffffffffffffffffffffffffffffffffffffffff168273ffffffffffffffffffffffffffffffffffffffff1603610f8b576040517f08c379a0000000000000000000000000000000000000000000000000000000008152600401610f8290612757565b60405180910390fd5b610f988383836001611494565b8273ffffffffffffffffffffffffffffffffffffffff16610fb8826106bc565b73ffffffffffffffffffffffffffffffffffffffff161461100e576040517f08c379a0000000000000000000000000000000000000000000000000000000008152600401611005906126c5565b60405180910390fd5b6004600082815260200190815260200160002060006101000a81549073ffffffffffffffffffffffffffffffffffffffff02191690556001600360008573ffffffffffffffffffffffffffffffffffffffff1673ffffffffffffffffffffffffffffffffffffffff168152602001908152602001600020600082825403925050819055506001600360008473ffffffffffffffffffffffffffffffffffffffff1673ffffffffffffffffffffffffffffffffffffffff16815260200190815260200160002060008282540192505081905550816002600083815260200190815260200160002060006101000a81548173ffffffffffffffffffffffffffffffffffffffff021916908373ffffffffffffffffffffffffffffffffffffffff160217905550808273ffffffffffffffffffffffffffffffffffffffff168473ffffffffffffffffffffffffffffffffffffffff167fddf252ad1be2c89b69c2b068fc378daa952ba7f163c4a11628f55a4df523b3ef60405160405180910390a461119a838383600161149a565b505050565b60006002600083815260200190815260200160002060009054906101000a900473ffffffffffffffffffffffffffffffffffffffff169050919050565b8173ffffffffffffffffffffffffffffffffffffffff168373ffffffffffffffffffffffffffffffffffffffff160361124a576040517f08c379a0000000000000000000000000000000000000000000000000000000008152600401611241906127c3565b60405180910390fd5b80600560008573ffffffffffffffffffffffffffffffffffffffff1673ffffffffffffffffffffffffffffffffffffffff16815260200190815260200160002060008473ffffffffffffffffffffffffffffffffffffffff1673ffffffffffffffffffffffffffffffffffffffff16815260200190815260200160002060006101000a81548160ff0219169083151502179055508173ffffffffffffffffffffffffffffffffffffffff168373ffffffffffffffffffffffffffffffffffffffff167f17307eab39ab6107e8899845ad3d59bd9653f200f220920489ca2b5937696c318360405161133b9190611976565b60405180910390a3505050565b611353848484610ea6565b61135f848484846114a0565b61139e576040517f08c379a000000000000000000000000000000000000000000000000000000000815260040161139590612855565b60405180910390fd5b50505050565b60008073ffffffffffffffffffffffffffffffffffffffff166113c68361119f565b73ffffffffffffffffffffffffffffffffffffffff1614159050919050565b600081600001549050919050565b61140d828260405180602001604052806000815250611627565b5050565b61141a826113a4565b611459576040517f08c379a0000000000000000000000000000000000000000000000000000000008152600401611450906128e7565b60405180910390fd5b806008600084815260200190815260200160002090816114799190612ab3565b505050565b6001816000016000828254019250508190555050565b50505050565b50505050565b60006114c18473ffffffffffffffffffffffffffffffffffffffff16611682565b1561161a578373ffffffffffffffffffffffffffffffffffffffff1663150b7a026114ea610d50565b8786866040518563ffffffff1660e01b815260040161150c9493929190612bda565b6020604051808303816000875af192505050801561154857506040513d601f19601f820116820180604052508101906115459190612c3b565b60015b6115ca573d8060008114611578576040519150601f19603f3d011682016040523d82523d6000602084013e61157d565b606091505b5060008151036115c2576040517f08c379a00000000000000000000000000000000000000000000000000000000081526004016115b990612855565b60405180910390fd5b805181602001fd5b63150b7a0260e01b7bffffffffffffffffffffffffffffffffffffffffffffffffffffffff1916817bffffffffffffffffffffffffffffffffffffffffffffffffffffffff19161491505061161f565b600190505b949350505050565b61163183836116a5565b61163e60008484846114a0565b61167d576040517f08c379a000000000000000000000000000000000000000000000000000000000815260040161167490612855565b60405180910390fd5b505050565b6000808273ffffffffffffffffffffffffffffffffffffffff163b119050919050565b600073ffffffffffffffffffffffffffffffffffffffff168273ffffffffffffffffffffffffffffffffffffffff1603611714576040517f08c379a000000000000000000000000000000000000000000000000000000000815260040161170b90612cb4565b60405180910390fd5b61171d816113a4565b1561175d576040517f08c379a000000000000000000000000000000000000000000000000000000000815260040161175490612d20565b60405180910390fd5b61176b600083836001611494565b611774816113a4565b156117b4576040517f08c379a00000000000000000000000000000000000000000000000000000000081526004016117ab90612d20565b60405180910390fd5b6001600360008473ffffffffffffffffffffffffffffffffffffffff1673ffffffffffffffffffffffffffffffffffffffff16815260200190815260200160002060008282540192505081905550816002600083815260200190815260200160002060006101000a81548173ffffffffffffffffffffffffffffffffffffffff021916908373ffffffffffffffffffffffffffffffffffffffff160217905550808273ffffffffffffffffffffffffffffffffffffffff16600073ffffffffffffffffffffffffffffffffffffffff167fddf252ad1be2c89b69c2b068fc378daa952ba7f163c4a11628f55a4df523b3ef60405160405180910390a46118be60008383600161149a565b5050565b6000604051905090565b600080fd5b600080fd5b60007fffffffff0000000000000000000000000000000000000000000000000000000082169050919050565b61190b816118d6565b811461191657600080fd5b50565b60008135905061192881611902565b92915050565b600060208284031215611944576119436118cc565b5b600061195284828501611919565b91505092915050565b60008115159050919050565b6119708161195b565b82525050565b600060208201905061198b6000830184611967565b92915050565b600081519050919050565b600082825260208201905092915050565b60005b838110156119cb5780820151818401526020810190506119b0565b60008484015250505050565b6000601f19601f8301169050919050565b60006119f382611991565b6119fd818561199c565b9350611a0d8185602086016119ad565b611a16816119d7565b840191505092915050565b60006020820190508181036000830152611a3b81846119e8565b905092915050565b6000819050919050565b611a5681611a43565b8114611a6157600080fd5b50565b600081359050611a7381611a4d565b92915050565b600060208284031215611a8f57611a8e6118cc565b5b6000611a9d84828501611a64565b91505092915050565b600073ffffffffffffffffffffffffffffffffffffffff82169050919050565b6000611ad182611aa6565b9050919050565b611ae181611ac6565b82525050565b6000602082019050611afc6000830184611ad8565b92915050565b611b0b81611ac6565b8114611b1657600080fd5b50565b600081359050611b2881611b02565b92915050565b60008060408385031215611b4557611b446118cc565b5b6000611b5385828601611b19565b9250506020611b6485828601611a64565b9150509250929050565b600080600060608486031215611b8757611b866118cc565b5b6000611b9586828701611b19565b9350506020611ba686828701611b19565b9250506040611bb786828701611a64565b9150509250925092565b600060208284031215611bd757611bd66118cc565b5b6000611be584828501611b19565b91505092915050565b611bf781611a43565b82525050565b6000602082019050611c126000830184611bee565b92915050565b611c218161195b565b8114611c2c57600080fd5b50565b600081359050611c3e81611c18565b92915050565b60008060408385031215611c5b57611c5a6118cc565b5b6000611c6985828601611b19565b9250506020611c7a85828601611c2f565b9150509250929050565b600080fd5b600080fd5b7f4e487b7100000000000000000000000000000000000000000000000000000000600052604160045260246000fd5b611cc6826119d7565b810181811067ffffffffffffffff82111715611ce557611ce4611c8e565b5b80604052505050565b6000611cf86118c2565b9050611d048282611cbd565b919050565b600067ffffffffffffffff821115611d2457611d23611c8e565b5b611d2d826119d7565b9050602081019050919050565b82818337600083830152505050565b6000611d5c611d5784611d09565b611cee565b905082815260208101848484011115611d7857611d77611c89565b5b611d83848285611d3a565b509392505050565b600082601f830112611da057611d9f611c84565b5b8135611db0848260208601611d49565b91505092915050565b60008060008060808587031215611dd357611dd26118cc565b5b6000611de187828801611b19565b9450506020611df287828801611b19565b9350506040611e0387828801611a64565b925050606085013567ffffffffffffffff811115611e2457611e236118d1565b5b611e3087828801611d8b565b91505092959194509250565b60008060408385031215611e5357611e526118cc565b5b6000611e6185828601611b19565b9250506020611e7285828601611b19565b9150509250929050565b600067ffffffffffffffff821115611e9757611e96611c8e565b5b611ea0826119d7565b9050602081019050919050565b6000611ec0611ebb84611e7c565b611cee565b905082815260208101848484011115611edc57611edb611c89565b5b611ee7848285611d3a565b509392505050565b600082601f830112611f0457611f03611c84565b5b8135611f14848260208601611ead565b91505092915050565b60008060408385031215611f3457611f336118cc565b5b6000611f4285828601611b19565b925050602083013567ffffffffffffffff811115611f6357611f626118d1565b5b611f6f85828601611eef565b9150509250929050565b600067ffffffffffffffff821115611f9457611f93611c8e565b5b602082029050602081019050919050565b600080fd5b6000611fbd611fb884611f79565b611cee565b90508083825260208201905060208402830185811115611fe057611fdf611fa5565b5b835b8181101561202757803567ffffffffffffffff81111561200557612004611c84565b5b8086016120128982611eef565b85526020850194505050602081019050611fe2565b5050509392505050565b600082601f83011261204657612045611c84565b5b8135612056848260208601611faa565b91505092915050565b60008060408385031215612076576120756118cc565b5b600061208485828601611b19565b925050602083013567ffffffffffffffff8111156120a5576120a46118d1565b5b6120b185828601612031565b9150509250929050565b600081519050919050565b600082825260208201905092915050565b6000819050602082019050919050565b6120f081611a43565b82525050565b600061210283836120e7565b60208301905092915050565b6000602082019050919050565b6000612126826120bb565b61213081856120c6565b935061213b836120d7565b8060005b8381101561216c57815161215388826120f6565b975061215e8361210e565b92505060018101905061213f565b5085935050505092915050565b60006020820190508181036000830152612193818461211b565b905092915050565b7f4e487b7100000000000000000000000000000000000000000000000000000000600052602260045260246000fd5b600060028204905060018216806121e257607f821691505b6020821081036121f5576121f461219b565b5b50919050565b7f4552433732313a20617070726f76616c20746f2063757272656e74206f776e6560008201527f7200000000000000000000000000000000000000000000000000000000000000602082015250565b600061225760218361199c565b9150612262826121fb565b604082019050919050565b600060208201905081810360008301526122868161224a565b9050919050565b7f4552433732313a20617070726f76652063616c6c6572206973206e6f7420746f60008201527f6b656e206f776e6572206f7220617070726f76656420666f7220616c6c000000602082015250565b60006122e9603d8361199c565b91506122f48261228d565b604082019050919050565b60006020820190508181036000830152612318816122dc565b9050919050565b7f4552433732313a2063616c6c6572206973206e6f7420746f6b656e206f776e6560008201527f72206f7220617070726f76656400000000000000000000000000000000000000602082015250565b600061237b602d8361199c565b91506123868261231f565b604082019050919050565b600060208201905081810360008301526123aa8161236e565b9050919050565b7f4552433732313a20696e76616c696420746f6b656e2049440000000000000000600082015250565b60006123e760188361199c565b91506123f2826123b1565b602082019050919050565b60006020820190508181036000830152612416816123da565b9050919050565b7f4552433732313a2061646472657373207a65726f206973206e6f74206120766160008201527f6c6964206f776e65720000000000000000000000000000000000000000000000602082015250565b600061247960298361199c565b91506124848261241d565b604082019050919050565b600060208201905081810360008301526124a88161246c565b9050919050565b7f54686520676976656e20746f6b656e206964206973206e6f742070726573656e60008201527f7400000000000000000000000000000000000000000000000000000000000000602082015250565b600061250b60218361199c565b9150612516826124af565b604082019050919050565b6000602082019050818103600083015261253a816124fe565b9050919050565b7f4f6e6c79206f776e65722063616e206d696e742020746865204e465400000000600082015250565b6000612577601c8361199c565b915061258282612541565b602082019050919050565b600060208201905081810360008301526125a68161256a565b9050919050565b7f4e487b7100000000000000000000000000000000000000000000000000000000600052603260045260246000fd5b7f4e487b7100000000000000000000000000000000000000000000000000000000600052601160045260246000fd5b600061261682611a43565b91507fffffffffffffffffffffffffffffffffffffffffffffffffffffffffffffffff8203612648576126476125dc565b5b600182019050919050565b7f4552433732313a207472616e736665722066726f6d20696e636f72726563742060008201527f6f776e6572000000000000000000000000000000000000000000000000000000602082015250565b60006126af60258361199c565b91506126ba82612653565b604082019050919050565b600060208201905081810360008301526126de816126a2565b9050919050565b7f4552433732313a207472616e7366657220746f20746865207a65726f2061646460008201527f7265737300000000000000000000000000000000000000000000000000000000602082015250565b600061274160248361199c565b915061274c826126e5565b604082019050919050565b6000602082019050818103600083015261277081612734565b9050919050565b7f4552433732313a20617070726f766520746f2063616c6c657200000000000000600082015250565b60006127ad60198361199c565b91506127b882612777565b602082019050919050565b600060208201905081810360008301526127dc816127a0565b9050919050565b7f4552433732313a207472616e7366657220746f206e6f6e20455243373231526560008201527f63656976657220696d706c656d656e7465720000000000000000000000000000602082015250565b600061283f60328361199c565b915061284a826127e3565b604082019050919050565b6000602082019050818103600083015261286e81612832565b9050919050565b7f74686520676976656e20746f6b656e206964206973206e6f742070726573656e60008201527f7400000000000000000000000000000000000000000000000000000000000000602082015250565b60006128d160218361199c565b91506128dc82612875565b604082019050919050565b60006020820190508181036000830152612900816128c4565b9050919050565b60008190508160005260206000209050919050565b60006020601f8301049050919050565b600082821b905092915050565b6000600883026129697fffffffffffffffffffffffffffffffffffffffffffffffffffffffffffffffff8261292c565b612973868361292c565b95508019841693508086168417925050509392505050565b6000819050919050565b60006129b06129ab6129a684611a43565b61298b565b611a43565b9050919050565b6000819050919050565b6129ca83612995565b6129de6129d6826129b7565b848454612939565b825550505050565b600090565b6129f36129e6565b6129fe8184846129c1565b505050565b5b81811015612a2257612a176000826129eb565b600181019050612a04565b5050565b601f821115612a6757612a3881612907565b612a418461291c565b81016020851015612a50578190505b612a64612a5c8561291c565b830182612a03565b50505b505050565b600082821c905092915050565b6000612a8a60001984600802612a6c565b1980831691505092915050565b6000612aa38383612a79565b9150826002028217905092915050565b612abc82611991565b67ffffffffffffffff811115612ad557612ad4611c8e565b5b612adf82546121ca565b612aea828285612a26565b600060209050601f831160018114612b1d5760008415612b0b578287015190505b612b158582612a97565b865550612b7d565b601f198416612b2b86612907565b60005b82811015612b5357848901518255600182019150602085019450602081019050612b2e565b86831015612b705784890151612b6c601f891682612a79565b8355505b6001600288020188555050505b505050505050565b600081519050919050565b600082825260208201905092915050565b6000612bac82612b85565b612bb68185612b90565b9350612bc68185602086016119ad565b612bcf816119d7565b840191505092915050565b6000608082019050612bef6000830187611ad8565b612bfc6020830186611ad8565b612c096040830185611bee565b8181036060830152612c1b8184612ba1565b905095945050505050565b600081519050612c3581611902565b92915050565b600060208284031215612c5157612c506118cc565b5b6000612c5f84828501612c26565b91505092915050565b7f4552433732313a206d696e7420746f20746865207a65726f2061646472657373600082015250565b6000612c9e60208361199c565b9150612ca982612c68565b602082019050919050565b60006020820190508181036000830152612ccd81612c91565b9050919050565b7f4552433732313a20746f6b656e20616c7265616479206d696e74656400000000600082015250565b6000612d0a601c8361199c565b9150612d1582612cd4565b602082019050919050565b60006020820190508181036000830152612d3981612cfd565b905091905056fea2646970667358221220a06c8539a819b3b02eac1da1d9baf80570904feba9be5104a1509ec5ab8c93d464736f6c63430008110033446966666572656e7420545620436172746f6f6e207374617220706c6179696e6720637269636b657420776974682062617420616e642062616c6c",
  "linkReferences": {},
  "deployedLinkReferences": {}
}